{
  "address": "0x3b5dfaE051C76B6836F3B6Fb8f440589a054207b",
  "abi": [
    {
      "inputs": [
        {
          "internalType": "address",
          "name": "priceFeedAddress",
          "type": "address"
        }
      ],
      "stateMutability": "nonpayable",
      "type": "constructor"
    },
    {
      "inputs": [],
      "name": "NotOwner",
      "type": "error"
    },
    {
      "stateMutability": "nonpayable",
      "type": "fallback"
    },
    {
      "inputs": [],
      "name": "MINIMUM_USD",
      "outputs": [
        {
          "internalType": "uint256",
          "name": "",
          "type": "uint256"
        }
      ],
      "stateMutability": "view",
      "type": "function"
    },
    {
      "inputs": [
        {
          "internalType": "address",
          "name": "",
          "type": "address"
        }
      ],
      "name": "addressToAmoutDonated",
      "outputs": [
        {
          "internalType": "uint256",
          "name": "",
          "type": "uint256"
        }
      ],
      "stateMutability": "view",
      "type": "function"
    },
    {
      "inputs": [],
      "name": "fund",
      "outputs": [],
      "stateMutability": "payable",
      "type": "function"
    },
    {
      "inputs": [
        {
          "internalType": "uint256",
          "name": "",
          "type": "uint256"
        }
      ],
      "name": "funders",
      "outputs": [
        {
          "internalType": "address",
          "name": "",
          "type": "address"
        }
      ],
      "stateMutability": "view",
      "type": "function"
    },
    {
      "inputs": [],
      "name": "i_owner",
      "outputs": [
        {
          "internalType": "address",
          "name": "",
          "type": "address"
        }
      ],
      "stateMutability": "view",
      "type": "function"
    },
    {
      "inputs": [],
      "name": "priceFeedObject",
      "outputs": [
        {
          "internalType": "contract AggregatorV3Interface",
          "name": "",
          "type": "address"
        }
      ],
      "stateMutability": "view",
      "type": "function"
    },
    {
      "inputs": [],
      "name": "widthdraw",
      "outputs": [],
      "stateMutability": "nonpayable",
      "type": "function"
    },
    {
      "stateMutability": "payable",
      "type": "receive"
    }
  ],
  "transactionHash": "0x164a723a9a29fae179f32c32693c8423e630c63672916640a4e0d601447ccb7b",
  "args": [
    "0xD4a33860578De61DBAbDc8BFdb98FD742fA7028e"
  ],
  "numDeployments": 1,
  "solcInputHash": "e2668a83730fe6fc705e77fc4571c867",
  "bytecode": "0x60a060405234801561001057600080fd5b50604051610faf380380610faf83398181016040528101906100329190610113565b3373ffffffffffffffffffffffffffffffffffffffff1660808173ffffffffffffffffffffffffffffffffffffffff1660601b8152505080600260006101000a81548173ffffffffffffffffffffffffffffffffffffffff021916908373ffffffffffffffffffffffffffffffffffffffff16021790555050610140565b600080fd5b600073ffffffffffffffffffffffffffffffffffffffff82169050919050565b60006100e0826100b5565b9050919050565b6100f0816100d5565b81146100fb57600080fd5b50565b60008151905061010d816100e7565b92915050565b600060208284031215610129576101286100b0565b5b6000610137848285016100fe565b91505092915050565b60805160601c610e4a610165600039600081816102f8015261056b0152610e4a6000f3fe6080604052600436106100745760003560e01c8063928f85711161004e578063928f857114610119578063b60d428814610144578063dba6335f1461014e578063dc0d3dff1461017957610083565b80633aafb22a1461009a57806352b50a2a146100d75780636b69a592146100ee57610083565b36610083576100816101b6565b005b34801561008f57600080fd5b506100986101b6565b005b3480156100a657600080fd5b506100c160048036038101906100bc91906107b2565b6102de565b6040516100ce91906107f8565b60405180910390f35b3480156100e357600080fd5b506100ec6102f6565b005b3480156100fa57600080fd5b50610103610536565b60405161011091906107f8565b60405180910390f35b34801561012557600080fd5b5061012e610543565b60405161013b9190610872565b60405180910390f35b61014c6101b6565b005b34801561015a57600080fd5b50610163610569565b604051610170919061089c565b60405180910390f35b34801561018557600080fd5b506101a0600480360381019061019b91906108e3565b61058d565b6040516101ad919061089c565b60405180910390f35b6802b5e3af16b18800006101f5600260009054906101000a900473ffffffffffffffffffffffffffffffffffffffff16346105cc90919063ffffffff16565b11610235576040517f08c379a000000000000000000000000000000000000000000000000000000000815260040161022c90610993565b60405180910390fd5b6000339080600181540180825580915050600190039060005260206000200160009091909190916101000a81548173ffffffffffffffffffffffffffffffffffffffff021916908373ffffffffffffffffffffffffffffffffffffffff16021790555034600160003373ffffffffffffffffffffffffffffffffffffffff1673ffffffffffffffffffffffffffffffffffffffff16815260200190815260200160002081905550565b60016020528060005260406000206000915090505481565b7f000000000000000000000000000000000000000000000000000000000000000073ffffffffffffffffffffffffffffffffffffffff163373ffffffffffffffffffffffffffffffffffffffff161461037b576040517f30cd747100000000000000000000000000000000000000000000000000000000815260040160405180910390fd5b60005b6000805490508110156104265760008082815481106103a05761039f6109b3565b5b9060005260206000200160009054906101000a900473ffffffffffffffffffffffffffffffffffffffff1690506000600160008373ffffffffffffffffffffffffffffffffffffffff1673ffffffffffffffffffffffffffffffffffffffff1681526020019081526020016000208190555050808061041e90610a11565b91505061037e565b50600067ffffffffffffffff81111561044257610441610a5a565b5b6040519080825280602002602001820160405280156104705781602001602082028036833780820191505090505b50600090805190602001906104869291906106a8565b5060003373ffffffffffffffffffffffffffffffffffffffff16476040516104ad90610aba565b60006040518083038185875af1925050503d80600081146104ea576040519150601f19603f3d011682016040523d82523d6000602084013e6104ef565b606091505b5050905080610533576040517f08c379a000000000000000000000000000000000000000000000000000000000815260040161052a90610b1b565b60405180910390fd5b50565b6802b5e3af16b188000081565b600260009054906101000a900473ffffffffffffffffffffffffffffffffffffffff1681565b7f000000000000000000000000000000000000000000000000000000000000000081565b6000818154811061059d57600080fd5b906000526020600020016000915054906101000a900473ffffffffffffffffffffffffffffffffffffffff1681565b6000806105d883610608565b90506000670de0b6b3a764000085836105f19190610b3b565b6105fb9190610bc4565b9050809250505092915050565b6000808273ffffffffffffffffffffffffffffffffffffffff1663feaf968c6040518163ffffffff1660e01b815260040160a06040518083038186803b15801561065157600080fd5b505afa158015610665573d6000803e3d6000fd5b505050506040513d601f19601f820116820180604052508101906106899190610c82565b5050509150506402540be400816106a09190610cfd565b915050919050565b828054828255906000526020600020908101928215610721579160200282015b828111156107205782518260006101000a81548173ffffffffffffffffffffffffffffffffffffffff021916908373ffffffffffffffffffffffffffffffffffffffff160217905550916020019190600101906106c8565b5b50905061072e9190610732565b5090565b5b8082111561074b576000816000905550600101610733565b5090565b600080fd5b600073ffffffffffffffffffffffffffffffffffffffff82169050919050565b600061077f82610754565b9050919050565b61078f81610774565b811461079a57600080fd5b50565b6000813590506107ac81610786565b92915050565b6000602082840312156107c8576107c761074f565b5b60006107d68482850161079d565b91505092915050565b6000819050919050565b6107f2816107df565b82525050565b600060208201905061080d60008301846107e9565b92915050565b6000819050919050565b600061083861083361082e84610754565b610813565b610754565b9050919050565b600061084a8261081d565b9050919050565b600061085c8261083f565b9050919050565b61086c81610851565b82525050565b60006020820190506108876000830184610863565b92915050565b61089681610774565b82525050565b60006020820190506108b1600083018461088d565b92915050565b6108c0816107df565b81146108cb57600080fd5b50565b6000813590506108dd816108b7565b92915050565b6000602082840312156108f9576108f861074f565b5b6000610907848285016108ce565b91505092915050565b600082825260208201905092915050565b7f4d7573742073656e642067726561746572207468616e20353020646f6c6c617260008201527f7321000000000000000000000000000000000000000000000000000000000000602082015250565b600061097d602283610910565b915061098882610921565b604082019050919050565b600060208201905081810360008301526109ac81610970565b9050919050565b7f4e487b7100000000000000000000000000000000000000000000000000000000600052603260045260246000fd5b7f4e487b7100000000000000000000000000000000000000000000000000000000600052601160045260246000fd5b6000610a1c826107df565b91507fffffffffffffffffffffffffffffffffffffffffffffffffffffffffffffffff821415610a4f57610a4e6109e2565b5b600182019050919050565b7f4e487b7100000000000000000000000000000000000000000000000000000000600052604160045260246000fd5b600081905092915050565b50565b6000610aa4600083610a89565b9150610aaf82610a94565b600082019050919050565b6000610ac582610a97565b9150819050919050565b7f43616c6c206661696c6564210000000000000000000000000000000000000000600082015250565b6000610b05600c83610910565b9150610b1082610acf565b602082019050919050565b60006020820190508181036000830152610b3481610af8565b9050919050565b6000610b46826107df565b9150610b51836107df565b9250817fffffffffffffffffffffffffffffffffffffffffffffffffffffffffffffffff0483118215151615610b8a57610b896109e2565b5b828202905092915050565b7f4e487b7100000000000000000000000000000000000000000000000000000000600052601260045260246000fd5b6000610bcf826107df565b9150610bda836107df565b925082610bea57610be9610b95565b5b828204905092915050565b600069ffffffffffffffffffff82169050919050565b610c1481610bf5565b8114610c1f57600080fd5b50565b600081519050610c3181610c0b565b92915050565b6000819050919050565b610c4a81610c37565b8114610c5557600080fd5b50565b600081519050610c6781610c41565b92915050565b600081519050610c7c816108b7565b92915050565b600080600080600060a08688031215610c9e57610c9d61074f565b5b6000610cac88828901610c22565b9550506020610cbd88828901610c58565b9450506040610cce88828901610c6d565b9350506060610cdf88828901610c6d565b9250506080610cf088828901610c22565b9150509295509295909350565b6000610d0882610c37565b9150610d1383610c37565b9250827f7fffffffffffffffffffffffffffffffffffffffffffffffffffffffffffffff0482116000841360008413161615610d5257610d516109e2565b5b817f80000000000000000000000000000000000000000000000000000000000000000583126000841260008413161615610d8f57610d8e6109e2565b5b827f80000000000000000000000000000000000000000000000000000000000000000582126000841360008412161615610dcc57610dcb6109e2565b5b827f7fffffffffffffffffffffffffffffffffffffffffffffffffffffffffffffff0582126000841260008412161615610e0957610e086109e2565b5b82820290509291505056fea264697066735822122043c380f579b5f8fbffc1ffa1adbab8b105ec8cb419b8e10a07940297ccf455d064736f6c63430008080033",
  "devdoc": {
    "kind": "dev",
    "methods": {},
    "version": 1
  },
  "userdoc": {
    "kind": "user",
    "methods": {},
    "version": 1
  },
  "storageLayout": {
    "storage": [
      {
        "astId": 57,
        "contract": "contracts/FundMe.sol:FundMe",
        "label": "funders",
        "offset": 0,
        "slot": "0",
        "type": "t_array(t_address)dyn_storage"
      },
      {
        "astId": 61,
        "contract": "contracts/FundMe.sol:FundMe",
        "label": "addressToAmoutDonated",
        "offset": 0,
        "slot": "1",
        "type": "t_mapping(t_address,t_uint256)"
      },
      {
        "astId": 71,
        "contract": "contracts/FundMe.sol:FundMe",
        "label": "priceFeedObject",
        "offset": 0,
        "slot": "2",
        "type": "t_contract(AggregatorV3Interface)45"
      }
    ],
    "types": {
      "t_address": {
        "encoding": "inplace",
        "label": "address",
        "numberOfBytes": "20"
      },
      "t_array(t_address)dyn_storage": {
        "base": "t_address",
        "encoding": "dynamic_array",
        "label": "address[]",
        "numberOfBytes": "32"
      },
      "t_contract(AggregatorV3Interface)45": {
        "encoding": "inplace",
        "label": "contract AggregatorV3Interface",
        "numberOfBytes": "20"
      },
      "t_mapping(t_address,t_uint256)": {
        "encoding": "mapping",
        "key": "t_address",
        "label": "mapping(address => uint256)",
        "numberOfBytes": "32",
        "value": "t_uint256"
      },
      "t_uint256": {
        "encoding": "inplace",
        "label": "uint256",
        "numberOfBytes": "32"
      }
    }
  }
}